{
  "contractName": "Vehicle",
  "abi": [
    {
      "constant": true,
      "inputs": [],
      "name": "vehicleCount",
      "outputs": [
        {
          "name": "",
          "type": "uint256"
        }
      ],
      "payable": false,
      "stateMutability": "view",
      "type": "function",
      "signature": "0x99704937"
    },
    {
      "constant": true,
      "inputs": [
        {
          "name": "",
          "type": "uint256"
        }
      ],
      "name": "vehicles",
      "outputs": [
        {
          "name": "vid",
          "type": "uint256"
        },
        {
          "name": "speed",
          "type": "uint256"
        },
        {
          "name": "latitude",
          "type": "int256"
        },
        {
          "name": "longitude",
          "type": "int256"
        },
        {
          "name": "isTwoWheeler",
          "type": "bool"
        }
      ],
      "payable": false,
      "stateMutability": "view",
      "type": "function",
      "signature": "0xb8ba95fa"
    },
    {
      "inputs": [],
      "payable": false,
      "stateMutability": "nonpayable",
      "type": "constructor",
      "signature": "constructor"
    },
    {
      "constant": false,
      "inputs": [
        {
          "name": "speed",
          "type": "uint256"
        },
        {
          "name": "latitude",
          "type": "int256"
        },
        {
          "name": "longitude",
          "type": "int256"
        },
        {
          "name": "twoWheeler",
          "type": "bool"
        }
      ],
      "name": "addVehicle",
      "outputs": [],
      "payable": false,
      "stateMutability": "nonpayable",
      "type": "function",
      "signature": "0x213a70fb"
    }
  ],
  "bytecode": "0x60806040526000805534801561001457600080fd5b50610032603c620c88d6620fa97d6001640100000000610054810204565b61004f60146218bcf0620fa97d6000640100000000610054810204565b6100c8565b6000805460019081018083556040805160a0810182528281526020808201998a52818301988952606082019788529515156080820190815292855294839052909220925183559451948201949094559151600283015551600382015590516004909101805460ff1916911515919091179055565b6101f0806100d76000396000f3fe6080604052600436106100565763ffffffff7c0100000000000000000000000000000000000000000000000000000000600035041663213a70fb811461005b578063997049371461009b578063b8ba95fa146100c2575b600080fd5b34801561006757600080fd5b506100996004803603608081101561007e57600080fd5b50803590602081013590604081013590606001351515610119565b005b3480156100a757600080fd5b506100b061018d565b60408051918252519081900360200190f35b3480156100ce57600080fd5b506100ec600480360360208110156100e557600080fd5b5035610193565b60408051958652602086019490945284840192909252606084015215156080830152519081900360a00190f35b6000805460019081018083556040805160a0810182528281526020808201998a52818301988952606082019788529515156080820190815292855294839052909220925183559451948201949094559151600283015551600382015590516004909101805460ff1916911515919091179055565b60005481565b6001602081905260009182526040909120805491810154600282015460038301546004909301549192909160ff168556fea165627a7a723058206ea8906c8d56299d2a68c418e64ef9401ca43edfbf35b20ea88015ee680775ad0029",
  "source": "pragma solidity ^0.5.0;\r\n\r\ncontract Vehicle {\r\n  uint public vehicleCount = 0;\r\n\r\n  struct Veh {\r\n    uint vid;\r\n    uint speed;\r\n    int256 latitude;\r\n    int256 longitude;\r\n    bool isTwoWheeler;\r\n  }\r\n\r\n  mapping(uint => Veh) public vehicles;\r\n\r\n  constructor() public {\r\n    addVehicle(60, 821462, 1026429, true);\r\n    addVehicle(20, 1621232, 1026429, false);\r\n  }\r\n\r\n  function addVehicle(uint speed, int256 latitude, int256 longitude, bool twoWheeler) public {\r\n    vehicleCount++;\r\n    vehicles[vehicleCount] = Veh(vehicleCount, speed, latitude, longitude, twoWheeler);\r\n  }\r\n}",
  "sourcePath": "C:/Users/Swetha/OneDrive/Desktop/VANET/contracts/Vehicle.sol",
  "compiler": {
    "name": "solc",
    "version": "0.5.0+commit.1d4f565a.Emscripten.clang"
  },
  "schemaVersion": "3.0.1",
  "updatedAt": "2023-06-04T03:18:04.913Z",
  "devdoc": {
    "methods": {}
  },
  "userdoc": {
    "methods": {}
  }
}